:020000040800F2
:10000000880D002069010008F5060008D1050008E8
:10001000F1060008D5010008050F000800000000E7
:10002000000000000000000000000000A10900081E
:10003000D901000800000000F70600088D0D000837
:100040008301000883010008830100088301000880
:100050008301000883010008830100088301000870
:100060008301000883010008830100088301000860
:100070008301000883010008830100088301000850
:1000800083010008830100088301000800000000CC
:1000900000000000000000000000000083010008D4
:1000A0008301000883010008830100088301000820
:1000B0008301000883010008830100088301000810
:1000C0008301000883010008830100088301000800
:1000D00083010008830100088301000883010008F0
:1000E00083010008830100088301000883010008E0
:1000F00083010008830100080000000000000000E8
:10010000830100080000000083010008830100084B
:1001100083010008830100088301000883010008AF
:10012000830100088301000883010008830100089F
:1001300083010008DFF80CD000F03AF800480047CF
:1001400085110008880D0020EFF30980704780F3C7
:1001500009887047EFF30880704780F3088870477C
:1001600040BA7047C0BA7047064880470648004703
:10017000FEE7FEE7FEE7FEE7FEE7FEE7FEE7FEE757
:10018000FEE7FEE7910D00083501000840EA010393
:100190009B0703D009E008C9121F08C0042AFAD23D
:1001A00003E011F8013B00F8013B521EF9D2704701
:1001B000064C074D06E0E06840F0010394E80700B4
:1001C00098471034AC42F6D3FFF7B8FF6C14000820
:1001D0008C14000800BFFEE77047000030B50446ED
:1001E00004254FF4302000F0C3F80546042D17D144
:1001F0000C48006940F002000A4908610846446161
:10020000006940F0400008614FF4302000F0B0F881
:1002100005460448006941F6FD710840014908613E
:10022000284630BD0020024004200B49C96801F077
:10023000010109B101200EE00749C96801F004017C
:1002400009B1022007E00449C96801F0100109B1B1
:10025000032000E004207047002002400148006AAB
:1002600070470000002002400348006940F0800011
:1002700001490861704700000020024001B50020DC
:100280000099C1F309021AB1012202EB912000E0AA
:10029000880A08BD70B504460D460426F00200F039
:1002A00067F80646042E11D10948006940F00100A4
:1002B000074908612580F00200F05AF80646044814
:1002C000006941F6FE71084001490861304670BD81
:1002D0000020024078B506460C4604250020009018
:1002E000E80200F045F80546042D24D113480069C2
:1002F00040F00100114908613480E80200F038F84C
:100300000546042D10D1B01C0090200C00990880E7
:10031000E80200F02DF805460848006941F6FE7134
:1003200008400649086106E00448006941F6FE718C
:10033000084002490861284678BD000000200240BC
:1003400002480349486003484860704723016745F5
:1003500000200240AB89EFCD0248034948600348C2
:10036000486070472301674500200240AB89EFCD0C
:1003700000B502460423FFF757FF034603E0FFF7EB
:1003800053FF0346521E012B01D1002AF7D102B9B7
:100390000523184600BD10B50346002003E013F8FE
:1003A000014B0C54401C9042F9DB10BD2DE9F04F7D
:1003B000ADF2044D0746894690460420CDF800046E
:1003C00046460025FFF7C8FF4FEA972B4FEA8B2BD5
:1003D000C7F3090ACAF58064A64200D8B4B24DE05A
:1003E0004FF4806269465846FFF7D5FF002508E0C4
:1003F0000AEB05001DF80000FF2800D003E0681C90
:1004000085B2A542F4DB00BFA54221DA5846FFF7CA
:10041000E5FECDF800049DF80004042805D04FF057
:10042000FF300DF2044DBDE8F08F002507E019F80C
:10043000050005EB0A010DF80100681C85B2A54214
:10044000F5DB4FF480626946584600F01DF804E081
:1004500022464946384600F017F8A64200D10EE081
:100460000BF5806B4FF0000AA1442744361BB6F50C
:10047000806F02D94FF4806400E0B4B2B0E700BFEF
:10048000FFF7F2FE4046CCE7F8B506460C461546A7
:1004900004200090002708E021883046FFF7FAFE8C
:1004A0000090B81C87B2B61CA41CAF4203DA9DF8BA
:1004B00000000428F0D02846F8BD2DE9F04102469E
:1004C00000250026002000230024002791F803C007
:1004D0000CF00F0591F803C00CF0100CBCF1000FEC
:1004E00003D091F802C04CEA050591F800C0BCF1B8
:1004F000000F31D0146800202BE04FF0010C0CFAF3
:1005000000F3B1F800C00CEA03069E4220D183003C
:100510004FF00F0C0CFA03F7BC4305FA03FC4CEA4E
:10052000040491F803C0BCF1280F06D14FF0010C70
:100530000CFA00FCC2F814C00AE091F803C0BCF148
:10054000480F05D14FF0010C0CFA00FCC2F810C0A6
:10055000401C0828D1D31460B1F800C0BCF1FF0FD3
:1005600034DD546800202EE000F1080C4FF0010843
:1005700008FA0CF3B1F800C00CEA03069E4221D140
:1005800083004FF00F0C0CFA03F7BC4305FA03FC91
:100590004CEA040491F803C0BCF1280F05D100F126
:1005A000080C08FA0CF8C2F8148091F803C0BCF1EA
:1005B000480F07D100F1080C4FF0010808FA0CF8B9
:1005C000C2F81080401C0828CED35460BDE8F081EA
:1005D00000BFFEE71FB54FF4E13000900020ADF8FA
:1005E0000400ADF80600ADF80800ADF80C000C20D2
:1005F000ADF80A006946002000F078F91FBD000040
:10060000F0B5144A00250024002320E0B1FBF2F6E7
:10061000303606F0FF0C2E466D1C00F806C0B1FB0C
:10062000F2F602FB16110A26B2FBF6F26E1E865D8A
:10063000302E01D1012600E000260CB9012700E090
:1006400000273E400EB1002500E0641C5B1C0A2B15
:10065000DCD3F0BD00CA9A3B10B51D480068A0F17C
:100660000060000B1B4908600846017801208840A3
:10067000401EC04318490860FFF7F0FD164909689D
:10068000084015490968884203D0012013490860D1
:1006900002E0002011490860114800F075FA114885
:1006A00000F072FA0F4800F06FFA0F4800F06CFA91
:1006B0000C4800F069FA0B4800F066FA0B4800F0AD
:1006C00063FA074800F060FA00F072F910BD00000C
:1006D00014000020080000200C0000201000002062
:1006E000CC130008E8120008801300083413000837
:1006F00000BFFEE77047704729B1064AD26902433E
:10070000044BDA6104E0034AD2698243014BDA61A7
:10071000704700000010024029B1064A9269024366
:10072000044B9A6104E0034A92698243014B9A6147
:10073000704700000010024030B500210022002464
:1007400000232D4D6D6805F00C0121B1042905D061
:10075000082923D105E0294D056022E0274D0560D9
:100760001FE0254D6D6805F47012234D6D6805F48A
:100770008034022505EB92421CB9214D554305609A
:100780000BE01D4D6D6805F400351DB11C4D554342
:10079000056002E0194D5543056002E0174D056004
:1007A00000BF00BF144D6D6805F0F0010909154D3B
:1007B0006B5C0568DD4045600F4D6D6805F4E061D8
:1007C000090A104D6B5C4568DD4085600A4D6D6817
:1007D00005F46051C90A0B4D6B5C4568DD40C5608E
:1007E000054D6D6805F44041890B074D6B5CC5688C
:1007F000B5FBF3F5056130BD0010024000127A0030
:1008000000093D002C0000203C00002070B505468A
:100810000C4606E0284600F095F9012801D1002099
:1008200070BD2000A4F10104F4D1401EF8E72DE9C9
:10083000F84304460D46904600202860414668462D
:10084000FFF7E4FF18B14FF0FF30BDE8F8839DF8E3
:100850000000182813D006DC012809D0022809D08E
:10086000042820D109E041281AD061281BD118E0C2
:1008700080271BE04FF4806718E00020E5E7414641
:100880006846FFF7C3FF40B99DF80000182804D15F
:100890004FF0FF3028600020D7E74FF0FF30D4E75B
:1008A00000BF0120D1E74FF0FF30CEE700BF9DF839
:1008B00000002070012609E0A0194146FFF7A6FFBD
:1008C00010B14FF0FF30C0E7701C86B2781D864231
:1008D000F2DB6178A07880F0FF00814202D04FF017
:1008E000FF30B2E72F600020AFE7000038B50446C4
:1008F0000D46234951F82410224A52F8242011436E
:1009000041F001000121FFF707FF34B91E4951F8FA
:1009100024000121FFF7F0FE05E01B4951F82400F7
:100920000121FFF7E9FE18208DF80300174830F881
:100930001400ADF8000003208DF80200144951F8AE
:1009400024006946FFF7B9FD04208DF80300114823
:1009500030F81400ADF800000F4951F82400694642
:10096000FFF7ABFD0D4951F82400294600F05AFA73
:100970000A4951F82400012100F03AFA38BD00007C
:10098000D0120008D8120008C8120008E0120008AF
:1009900078000020E4120008800000207000002091
:1009A000704710B50446204600F0DEF8002010BD68
:1009B0003EB51DA207CA8DE8070000241DA000F067
:1009C000E3F82C4800F0A0FA0446002C16DD2A4873
:1009D00000F0DAF8294800F0D7F821466846FFF71A
:1009E0000FFE27A000F0D0F8684600F0CDF827A051
:1009F00000F0CAF828A000F0C7F814E0601C18B98D
:100A00002BA000F0C1F80EE0A01C18B938A000F02F
:100A1000BBF808E0E01C18B93CA000F0B5F802E013
:100A200040A000F0B1F83EBD202020202020202052
:100A3000202000000D0A57616974696E6720666F97
:100A400072207468652066696C6520746F20626529
:100A50002073656E74202E2E2E202870726573739D
:100A60002027612720746F2061626F7274290A0D3C
:100A700000000000880000201814000888040020EE
:100A80000A0D2053697A653A2000000020427974EB
:100A900065730D0A000000002D2D2D2D2D2D2D2DFF
:100AA0002D2D2D2D2D2D2D2D2D2D2D0D0A00000040
:100AB0000A0A0D54686520696D6167652073697A5B
:100AC0006520697320686967686572207468616E63
:100AD0002074686520616C6C6F7765642073706149
:100AE0006365206D656D6F7279210A0D000000004D
:100AF0000A0A0D566572696669636174696F6E20D2
:100B00006661696C6564210A0D0000000D0A0A41E6
:100B1000626F7274656420627920757365722E0A43
:100B20000D0000000A0D4661696C656420746F2039
:100B300072656365697665207468652066696C65B1
:100B4000210A0D0010B504462021064800F05CF98A
:100B500028B10448001D00882070012010BD00202D
:100B6000FCE700000048004010B504462146054857
:100B700000F0C4F900BF8021024800F045F90028C8
:100B8000F9D010BD0048004010B5044603E02078BD
:100B9000FFF7EAFF641C20780028F8D110BD10B5DB
:100BA00000F002F810BD00000CB50020019000908C
:100BB0003348006840F480303149086000BF304855
:100BC000006800F4003000900198401C01900098EB
:100BD00018B90198B0F5A06FF1D12948006800F468
:100BE000003010B10120009001E00020009000983A
:100BF000012843D12348006840F0100021490860D3
:100C00000846006820F0030008600846006840F0CD
:100C1000020008601A484068194948600846406860
:100C200048600846406840F4806048600846406874
:100C300020F47C1048600846406840F4E8104860A2
:100C40000846006840F08070086000BF0C480068EB
:100C500000F000700028F9D00948406820F0030037
:100C6000074948600846406840F00200486000BFFD
:100C70000348406800F00C000828F9D10CBD0000C2
:100C8000001002400020024070B502460C460021D0
:100C9000002500231078302843D15078782802D0DE
:100CA000507858283DD1907808B9002070BD0221B5
:100CB00030E0505C10B9236001252DE0505C4128E4
:100CC00002DB505C46280BDD505C612802DB505C87
:100CD000662805DD505C302819DB505C392816DCAD
:100CE000505C302805DB505C392802DC505C303821
:100CF0000AE0505C412805DB505C462802DC505C71
:100D0000373801E0505C573800EB031301E0002551
:100D100002E0491C0B29CCD300BF0B2934D300259A
:100D200032E000212AE0505C10B92360012527E061
:100D3000505C6B2802D0505C4B2804D119B19B0247
:100D4000236001251CE0505C6D2802D0505C4D28CA
:100D500004D119B11B052360012511E0505C302836
:100D600009DB505C392806DC505C303803EB830625
:100D700000EB460301E0002502E0491C0B29D2D319
:100D800000BF0B2900D3002528468FE770470000DD
:100D900010B51348006840F001001149086008468A
:100DA0004068104908400E494860084600680E49EE
:100DB00008400B4908600846006820F4802008605D
:100DC0000846406820F4FE0048604FF41F00886029
:100DD000FFF7E5FE4FF000600449086010BD000019
:100DE000001002400000FFF8FFFFF6FE08ED00E0F3
:100DF00021B1828942F40052828104E082894DF659
:100E0000FF731A408281704702460020B1F5007FCF
:100E100000D100BF13880B400BB1012000E000207F
:100E2000704700002DE9F04786B005460E460024C5
:100E3000A24600BFA1460027B08900B100BF2F46DF
:100E40002C8A4CF6FF700440F08804432C82AC8955
:100E50004EF6F3100440B088318908437189084385
:100E60000443AC81AC8A4FF6FF400440B089044390
:100E7000AC8201A8FFF760FC1F48874202D1DDF871
:100E800010A001E0DDF80CA0A88900F4004040B1FA
:100E90000AEBCA0000EB0A1031684900B0FBF1F818
:100EA00007E00AEBCA0000EB0A1031688900B0FBCA
:100EB000F1F86420B8FBF0F004012009642101FB83
:100EC0001089A88900F4004040B1322000EBC9002D
:100ED000B0FBF1F000F00700044308E0322000EB23
:100EE00009106421B0FBF1F000F00F0004432C81E5
:100EF00006B0BDE8F087000000380140C1F30802E9
:100F00008280704700BFFEE72DE9F04FADF22C4D17
:100F10000646002001908B488B4908604FF0000B7B
:100F20004FF0000A0020029000BF0027002003902D
:100F3000B04600BF4FF4801204A909A8FFF777FC60
:100F400010B101287ED1D0E04FF0000A0498B0F132
:100F5000FF3F01D070B907E00620FFF722FD002017
:100F60000DF22C4DBDE8F08F0620FFF71AFD012091
:100F70000390B8E09DF82500F9B2884203D015200F
:100F8000FFF70FFDAFE0002F6ED19DF8270000287E
:100F900063D000250DF1270405E014F8012B284645
:100FA0006D1C6A490A54207808B1FF2DF5DD002236
:100FB00028466D1C65490A540025641C05E014F898
:100FC000012B28466D1C05A90A542078202801D041
:100FD000102DF4DB002228466D1C05A90A5401A936
:100FE00005A8FFF751FE0198B0F5803F08DB1820F7
:100FF000FFF7D7FC1820FFF7D4FC4FF0FF30AFE726
:101000000198FFF73BF952490860002051490860F8
:1010100010E04D490968504A12884E4B1B6802FB8C
:101020000310FFF7DBF84D4908704A480068401C80
:10103000484908604748006845490968884205D220
:10104000464800E05AE000780428E2D00620FFF786
:10105000A8FC4320FFF7A5FC42E00620FFF7A1FC17
:101060000120039083463EE00DF127014046049A9B
:10107000FFF78CF83A4806604FF0000923E0384843
:101080000068016830480068FFF724F92E480068BE
:101090000068334909680968884208D01820FFF7BA
:1010A00080FC1820FFF77DFC6FF0010058E7264810
:1010B0000068001D2449086029480068001D28496F
:1010C000086009F104090498814506DA1D49019870
:1010D00008441D4909688842D1D80620FFF761FC01
:1010E0007F1C0120029000BF1CE01820FFF759FC74
:1010F0001820FFF756FC6FF0020031E70298002835
:1011000001DD0AF1010ABAF1050F07DD1820FFF72A
:1011100048FC1820FFF745FC002021E74320FFF79B
:1011200040FC00BF00BF039800283FF403AF00BF9E
:1011300000BFBBF1000F3FF4F8AE00BF00BF019845
:101140000EE70000000001081400002088040020C1
:10115000200000201C000020180000202400002097
:101160002800002002E008C8121F08C1002AFAD196
:1011700070477047002001E001C1121F002AFBD117
:101180007047000008B500200090FFF7D9F8FFF77E
:1011900021FA012269462548FFF7FDF845E09DF850
:1011A0000000012823D100200090FFF7C9F8012298
:1011B00069461E48FFF7FAF8FFF7C2F8FFF74CFA46
:1011C0001B4800681B490840B0F1005F2DD118484A
:1011D00040681949086008460068184908601449C1
:1011E0000868FEF7BAFF1548006880471DE0104800
:1011F000006810490840B0F1005F0FD10C4840680A
:101200000D490860084600680C49086008490868EC
:10121000FEF7A3FF09480068804706E00120009020
:10122000012269460148FFF7C1F8B8E700C000088D
:10123000000001080000FE2F040000200000002034
:1012400040008000000100028000000080000000DB
:10125000800000008000000001000020000100204C
:101260000040008008008000040000001000000022
:10127000000100000001000000010000000100006A
:1012800020000000000100000100002000010020FB
:1012900000400080080080000000020006000600F8
:1012A000060006000300060000000D0008000D0007
:1012B0000E000F000300070006002800170028009A
:1012C00028002800090017000000040000000200A8
:1012D00008000000040000000800000004000000F6
:1012E00000040400000808000D0A3D2020202020F2
:1012F00020202020202020202020202020202020EE
:1013000020202020202020202020202020202020DD
:1013100020202020202020202020202020202020CD
:101320002020202020202020202020202020203DA0
:10133000000000000D0A3D20202020202020202039
:101340002020446F776E6C6F616420757365722026
:101350006170706C69636174696F6E206279205985
:101360006D6F64656D20202020202020202020200B
:1013700020202020202020202020203D00000000D0
:101380000D0A3D2020496E2D4170706C69636174B7
:10139000696F6E2050726F6772616D6D696E672044
:1013A0004170706C69636174696F6E2020285665A6
:1013B0007273696F6E20312E302E3029202020204C
:1013C000202020202020203D000000000D0A3D3D6F
:1013D0003D3D3D3D3D3D3D3D3D3D3D3D3D3D3D3D3D
:1013E0003D3D3D3D3D3D3D3D3D3D3D3D3D3D3D3D2D
:1013F0003D3D3D3D3D3D3D3D3D3D3D3D3D3D3D3D1D
:101400003D3D3D3D3D3D3D3D3D3D3D3D3D3D3D3D0C
:101410003D3D3D3D000000000A0A0D2050726F67FF
:1014200072616D6D696E6720436F6D706C65746578
:1014300064205375636365737366756C6C79210AF8
:101440000D2D2D2D2D2D2D2D2D2D2D2D2D2D2D2DEC
:101450002D2D2D2D2D2D2D2D2D2D2D2D2D2D2D2DBC
:101460002D0D0A204E616D653A2000008C14000895
:101470000000002088000000641100081415000816
:1014800088000020000D000074110008000000001A
:10149000000000000000000000000000000000004C
:1014A000000001080004000000000000000000002F
:1014B000040000000000000000000000010203041E
:1014C000010203040607080902040608001C014083
:1014D000001C0140001C0140001C014000080140AC
:1014E0000010014000200140002001400020014088
:1014F000002001400014014000200140004800404D
:1015000000440040000C014000080140000C014074
:04151000000801408E
:0400000508000135B9
:00000001FF
